{
  "_format": "hh-sol-artifact-1",
  "contractName": "DegenToken",
  "sourceName": "contracts/DegenToken.sol",
  "abi": [
    {
      "inputs": [],
      "stateMutability": "nonpayable",
      "type": "constructor"
    },
    {
      "anonymous": false,
      "inputs": [
        {
          "indexed": true,
          "internalType": "address",
          "name": "owner",
          "type": "address"
        },
        {
          "indexed": true,
          "internalType": "address",
          "name": "spender",
          "type": "address"
        },
        {
          "indexed": false,
          "internalType": "uint256",
          "name": "value",
          "type": "uint256"
        }
      ],
      "name": "Approval",
      "type": "event"
    },
    {
      "anonymous": false,
      "inputs": [
        {
          "indexed": true,
          "internalType": "address",
          "name": "sender",
          "type": "address"
        },
        {
          "indexed": true,
          "internalType": "address",
          "name": "recipient",
          "type": "address"
        },
        {
          "indexed": true,
          "internalType": "uint256",
          "name": "tokenId",
          "type": "uint256"
        },
        {
          "indexed": false,
          "internalType": "string",
          "name": "tokenName",
          "type": "string"
        }
      ],
      "name": "NFTTransfer",
      "type": "event"
    },
    {
      "anonymous": false,
      "inputs": [
        {
          "indexed": true,
          "internalType": "address",
          "name": "previousOwner",
          "type": "address"
        },
        {
          "indexed": true,
          "internalType": "address",
          "name": "newOwner",
          "type": "address"
        }
      ],
      "name": "OwnershipTransferred",
      "type": "event"
    },
    {
      "anonymous": false,
      "inputs": [
        {
          "indexed": true,
          "internalType": "address",
          "name": "from",
          "type": "address"
        },
        {
          "indexed": true,
          "internalType": "address",
          "name": "to",
          "type": "address"
        },
        {
          "indexed": false,
          "internalType": "uint256",
          "name": "value",
          "type": "uint256"
        }
      ],
      "name": "Transfer",
      "type": "event"
    },
    {
      "inputs": [
        {
          "internalType": "address",
          "name": "owner",
          "type": "address"
        },
        {
          "internalType": "address",
          "name": "spender",
          "type": "address"
        }
      ],
      "name": "allowance",
      "outputs": [
        {
          "internalType": "uint256",
          "name": "",
          "type": "uint256"
        }
      ],
      "stateMutability": "view",
      "type": "function"
    },
    {
      "inputs": [
        {
          "internalType": "address",
          "name": "spender",
          "type": "address"
        },
        {
          "internalType": "uint256",
          "name": "amount",
          "type": "uint256"
        }
      ],
      "name": "approve",
      "outputs": [
        {
          "internalType": "bool",
          "name": "",
          "type": "bool"
        }
      ],
      "stateMutability": "nonpayable",
      "type": "function"
    },
    {
      "inputs": [
        {
          "internalType": "address",
          "name": "account",
          "type": "address"
        }
      ],
      "name": "balanceOf",
      "outputs": [
        {
          "internalType": "uint256",
          "name": "",
          "type": "uint256"
        }
      ],
      "stateMutability": "view",
      "type": "function"
    },
    {
      "inputs": [
        {
          "internalType": "uint256",
          "name": "amount",
          "type": "uint256"
        }
      ],
      "name": "burn",
      "outputs": [],
      "stateMutability": "nonpayable",
      "type": "function"
    },
    {
      "inputs": [
        {
          "internalType": "address",
          "name": "account",
          "type": "address"
        },
        {
          "internalType": "uint256",
          "name": "amount",
          "type": "uint256"
        }
      ],
      "name": "burnFrom",
      "outputs": [],
      "stateMutability": "nonpayable",
      "type": "function"
    },
    {
      "inputs": [],
      "name": "decimals",
      "outputs": [
        {
          "internalType": "uint8",
          "name": "",
          "type": "uint8"
        }
      ],
      "stateMutability": "view",
      "type": "function"
    },
    {
      "inputs": [
        {
          "internalType": "address",
          "name": "spender",
          "type": "address"
        },
        {
          "internalType": "uint256",
          "name": "subtractedValue",
          "type": "uint256"
        }
      ],
      "name": "decreaseAllowance",
      "outputs": [
        {
          "internalType": "bool",
          "name": "",
          "type": "bool"
        }
      ],
      "stateMutability": "nonpayable",
      "type": "function"
    },
    {
      "inputs": [
        {
          "internalType": "uint256",
          "name": "_tokenId",
          "type": "uint256"
        }
      ],
      "name": "getNFTDetails",
      "outputs": [
        {
          "components": [
            {
              "internalType": "uint256",
              "name": "tokenId",
              "type": "uint256"
            },
            {
              "internalType": "string",
              "name": "tokenName",
              "type": "string"
            },
            {
              "internalType": "uint256",
              "name": "tokenPrice",
              "type": "uint256"
            },
            {
              "internalType": "address",
              "name": "tokenOwner",
              "type": "address"
            }
          ],
          "internalType": "struct DegenToken.NFT",
          "name": "",
          "type": "tuple"
        }
      ],
      "stateMutability": "view",
      "type": "function"
    },
    {
      "inputs": [
        {
          "internalType": "address",
          "name": "spender",
          "type": "address"
        },
        {
          "internalType": "uint256",
          "name": "addedValue",
          "type": "uint256"
        }
      ],
      "name": "increaseAllowance",
      "outputs": [
        {
          "internalType": "bool",
          "name": "",
          "type": "bool"
        }
      ],
      "stateMutability": "nonpayable",
      "type": "function"
    },
    {
      "inputs": [
        {
          "internalType": "address",
          "name": "recipient",
          "type": "address"
        },
        {
          "internalType": "uint256",
          "name": "quantity",
          "type": "uint256"
        }
      ],
      "name": "mint",
      "outputs": [],
      "stateMutability": "nonpayable",
      "type": "function"
    },
    {
      "inputs": [],
      "name": "name",
      "outputs": [
        {
          "internalType": "string",
          "name": "",
          "type": "string"
        }
      ],
      "stateMutability": "view",
      "type": "function"
    },
    {
      "inputs": [],
      "name": "owner",
      "outputs": [
        {
          "internalType": "address",
          "name": "",
          "type": "address"
        }
      ],
      "stateMutability": "view",
      "type": "function"
    },
    {
      "inputs": [
        {
          "internalType": "uint256",
          "name": "_tokenId",
          "type": "uint256"
        }
      ],
      "name": "redeemNFT",
      "outputs": [],
      "stateMutability": "nonpayable",
      "type": "function"
    },
    {
      "inputs": [
        {
          "internalType": "string",
          "name": "_tokenName",
          "type": "string"
        },
        {
          "internalType": "uint256",
          "name": "_tokenPrice",
          "type": "uint256"
        }
      ],
      "name": "registerNFT",
      "outputs": [],
      "stateMutability": "nonpayable",
      "type": "function"
    },
    {
      "inputs": [],
      "name": "renounceOwnership",
      "outputs": [],
      "stateMutability": "nonpayable",
      "type": "function"
    },
    {
      "inputs": [],
      "name": "symbol",
      "outputs": [
        {
          "internalType": "string",
          "name": "",
          "type": "string"
        }
      ],
      "stateMutability": "view",
      "type": "function"
    },
    {
      "inputs": [],
      "name": "totalSupply",
      "outputs": [
        {
          "internalType": "uint256",
          "name": "",
          "type": "uint256"
        }
      ],
      "stateMutability": "view",
      "type": "function"
    },
    {
      "inputs": [
        {
          "internalType": "address",
          "name": "to",
          "type": "address"
        },
        {
          "internalType": "uint256",
          "name": "amount",
          "type": "uint256"
        }
      ],
      "name": "transfer",
      "outputs": [
        {
          "internalType": "bool",
          "name": "",
          "type": "bool"
        }
      ],
      "stateMutability": "nonpayable",
      "type": "function"
    },
    {
      "inputs": [
        {
          "internalType": "address",
          "name": "from",
          "type": "address"
        },
        {
          "internalType": "address",
          "name": "to",
          "type": "address"
        },
        {
          "internalType": "uint256",
          "name": "amount",
          "type": "uint256"
        }
      ],
      "name": "transferFrom",
      "outputs": [
        {
          "internalType": "bool",
          "name": "",
          "type": "bool"
        }
      ],
      "stateMutability": "nonpayable",
      "type": "function"
    },
    {
      "inputs": [
        {
          "internalType": "address",
          "name": "newOwner",
          "type": "address"
        }
      ],
      "name": "transferOwnership",
      "outputs": [],
      "stateMutability": "nonpayable",
      "type": "function"
    }
  ],
  "bytecode": "0x60806040523480156200001157600080fd5b506040518060400160405280600581526020017f446567656e0000000000000000000000000000000000000000000000000000008152506040518060400160405280600381526020017f44474e000000000000000000000000000000000000000000000000000000000081525081600390816200008f919062000412565b508060049081620000a1919062000412565b505050620000c4620000b8620000ca60201b60201c565b620000d260201b60201c565b620004f9565b600033905090565b6000600560009054906101000a900473ffffffffffffffffffffffffffffffffffffffff16905081600560006101000a81548173ffffffffffffffffffffffffffffffffffffffff021916908373ffffffffffffffffffffffffffffffffffffffff1602179055508173ffffffffffffffffffffffffffffffffffffffff168173ffffffffffffffffffffffffffffffffffffffff167f8be0079c531659141344cd1fd0a4f28419497f9722a3daafe3b4186f6b6457e060405160405180910390a35050565b600081519050919050565b7f4e487b7100000000000000000000000000000000000000000000000000000000600052604160045260246000fd5b7f4e487b7100000000000000000000000000000000000000000000000000000000600052602260045260246000fd5b600060028204905060018216806200021a57607f821691505b60208210810362000230576200022f620001d2565b5b50919050565b60008190508160005260206000209050919050565b60006020601f8301049050919050565b600082821b905092915050565b6000600883026200029a7fffffffffffffffffffffffffffffffffffffffffffffffffffffffffffffffff826200025b565b620002a686836200025b565b95508019841693508086168417925050509392505050565b6000819050919050565b6000819050919050565b6000620002f3620002ed620002e784620002be565b620002c8565b620002be565b9050919050565b6000819050919050565b6200030f83620002d2565b620003276200031e82620002fa565b84845462000268565b825550505050565b600090565b6200033e6200032f565b6200034b81848462000304565b505050565b5b8181101562000373576200036760008262000334565b60018101905062000351565b5050565b601f821115620003c2576200038c8162000236565b62000397846200024b565b81016020851015620003a7578190505b620003bf620003b6856200024b565b83018262000350565b50505b505050565b600082821c905092915050565b6000620003e760001984600802620003c7565b1980831691505092915050565b6000620004028383620003d4565b9150826002028217905092915050565b6200041d8262000198565b67ffffffffffffffff811115620004395762000438620001a3565b5b62000445825462000201565b6200045282828562000377565b600060209050601f8311600181146200048a576000841562000475578287015190505b620004818582620003f4565b865550620004f1565b601f1984166200049a8662000236565b60005b82811015620004c4578489015182556001820191506020850194506020810190506200049d565b86831015620004e45784890151620004e0601f891682620003d4565b8355505b6001600288020188555050505b505050505050565b6127c580620005096000396000f3fe608060405234801561001057600080fd5b506004361061012c5760003560e01c8063715018a6116100ad578063a457c2d711610071578063a457c2d714610331578063a9059cbb14610361578063dcb24df214610391578063dd62ed3e146103ad578063f2fde38b146103dd5761012c565b8063715018a61461029f57806379cc6790146102a957806382260f35146102c55780638da5cb5b146102f557806395d89b41146103135761012c565b806339509351116100f457806339509351146101eb57806340c10f191461021b57806342966c681461023757806358dc2cdb1461025357806370a082311461026f5761012c565b806306fdde0314610131578063095ea7b31461014f57806318160ddd1461017f57806323b872dd1461019d578063313ce567146101cd575b600080fd5b6101396103f9565b6040516101469190611726565b60405180910390f35b610169600480360381019061016491906117f0565b61048b565b604051610176919061184b565b60405180910390f35b6101876104ae565b6040516101949190611875565b60405180910390f35b6101b760048036038101906101b29190611890565b6104b8565b6040516101c4919061184b565b60405180910390f35b6101d56104e7565b6040516101e291906118ff565b60405180910390f35b610205600480360381019061020091906117f0565b6104f0565b604051610212919061184b565b60405180910390f35b610235600480360381019061023091906117f0565b610527565b005b610251600480360381019061024c919061191a565b61053d565b005b61026d6004803603810190610268919061191a565b610551565b005b61028960048036038101906102849190611947565b6107d2565b6040516102969190611875565b60405180910390f35b6102a761081a565b005b6102c360048036038101906102be91906117f0565b61082e565b005b6102df60048036038101906102da919061191a565b61084e565b6040516102ec9190611a3f565b60405180910390f35b6102fd6109c8565b60405161030a9190611a70565b60405180910390f35b61031b6109f2565b6040516103289190611726565b60405180910390f35b61034b600480360381019061034691906117f0565b610a84565b604051610358919061184b565b60405180910390f35b61037b600480360381019061037691906117f0565b610afb565b604051610388919061184b565b60405180910390f35b6103ab60048036038101906103a69190611bc0565b610b1e565b005b6103c760048036038101906103c29190611c1c565b610c0a565b6040516103d49190611875565b60405180910390f35b6103f760048036038101906103f29190611947565b610c91565b005b60606003805461040890611c8b565b80601f016020809104026020016040519081016040528092919081815260200182805461043490611c8b565b80156104815780601f1061045657610100808354040283529160200191610481565b820191906000526020600020905b81548152906001019060200180831161046457829003601f168201915b5050505050905090565b600080610496610d14565b90506104a3818585610d1c565b600191505092915050565b6000600254905090565b6000806104c3610d14565b90506104d0858285610ee5565b6104db858585610f71565b60019150509392505050565b60006012905090565b6000806104fb610d14565b905061051c81858561050d8589610c0a565b6105179190611ceb565b610d1c565b600191505092915050565b61052f6111e7565b6105398282611265565b5050565b61054e610548610d14565b826113bb565b50565b60008111801561056357506007548111155b6105a2576040517f08c379a000000000000000000000000000000000000000000000000000000000815260040161059990611d6b565b60405180910390fd5b600060066000838152602001908152602001600020604051806080016040529081600082015481526020016001820180546105dc90611c8b565b80601f016020809104026020016040519081016040528092919081815260200182805461060890611c8b565b80156106555780601f1061062a57610100808354040283529160200191610655565b820191906000526020600020905b81548152906001019060200180831161063857829003601f168201915b50505050508152602001600282015481526020016003820160009054906101000a900473ffffffffffffffffffffffffffffffffffffffff1673ffffffffffffffffffffffffffffffffffffffff1673ffffffffffffffffffffffffffffffffffffffff1681525050905080604001516106ce336107d2565b101561070f576040517f08c379a000000000000000000000000000000000000000000000000000000000815260040161070690611dd7565b60405180910390fd5b6107253361071b6109c8565b8360400151610f71565b33816060019073ffffffffffffffffffffffffffffffffffffffff16908173ffffffffffffffffffffffffffffffffffffffff1681525050816107666109c8565b73ffffffffffffffffffffffffffffffffffffffff163373ffffffffffffffffffffffffffffffffffffffff167fa05ab123f67a8a94ecdf1371d4f74d2f6af8b5c1d4c3dafdfdb10dfdeca0eec884602001516040516107c69190611726565b60405180910390a45050565b60008060008373ffffffffffffffffffffffffffffffffffffffff1673ffffffffffffffffffffffffffffffffffffffff168152602001908152602001600020549050919050565b6108226111e7565b61082c6000611588565b565b6108408261083a610d14565b83610ee5565b61084a82826113bb565b5050565b610856611658565b60008211801561086857506007548211155b6108a7576040517f08c379a000000000000000000000000000000000000000000000000000000000815260040161089e90611e43565b60405180910390fd5b60066000838152602001908152602001600020604051806080016040529081600082015481526020016001820180546108df90611c8b565b80601f016020809104026020016040519081016040528092919081815260200182805461090b90611c8b565b80156109585780601f1061092d57610100808354040283529160200191610958565b820191906000526020600020905b81548152906001019060200180831161093b57829003601f168201915b50505050508152602001600282015481526020016003820160009054906101000a900473ffffffffffffffffffffffffffffffffffffffff1673ffffffffffffffffffffffffffffffffffffffff1673ffffffffffffffffffffffffffffffffffffffff16815250509050919050565b6000600560009054906101000a900473ffffffffffffffffffffffffffffffffffffffff16905090565b606060048054610a0190611c8b565b80601f0160208091040260200160405190810160405280929190818152602001828054610a2d90611c8b565b8015610a7a5780601f10610a4f57610100808354040283529160200191610a7a565b820191906000526020600020905b815481529060010190602001808311610a5d57829003601f168201915b5050505050905090565b600080610a8f610d14565b90506000610a9d8286610c0a565b905083811015610ae2576040517f08c379a0000000000000000000000000000000000000000000000000000000008152600401610ad990611ed5565b60405180910390fd5b610aef8286868403610d1c565b60019250505092915050565b600080610b06610d14565b9050610b13818585610f71565b600191505092915050565b610b266111e7565b60076000815480929190610b3990611ef5565b91905055506000604051806080016040528060075481526020018481526020018381526020013373ffffffffffffffffffffffffffffffffffffffff16815250905080600660006007548152602001908152602001600020600082015181600001556020820151816001019081610bb091906120e9565b506040820151816002015560608201518160030160006101000a81548173ffffffffffffffffffffffffffffffffffffffff021916908373ffffffffffffffffffffffffffffffffffffffff160217905550905050505050565b6000600160008473ffffffffffffffffffffffffffffffffffffffff1673ffffffffffffffffffffffffffffffffffffffff16815260200190815260200160002060008373ffffffffffffffffffffffffffffffffffffffff1673ffffffffffffffffffffffffffffffffffffffff16815260200190815260200160002054905092915050565b610c996111e7565b600073ffffffffffffffffffffffffffffffffffffffff168173ffffffffffffffffffffffffffffffffffffffff1603610d08576040517f08c379a0000000000000000000000000000000000000000000000000000000008152600401610cff9061222d565b60405180910390fd5b610d1181611588565b50565b600033905090565b600073ffffffffffffffffffffffffffffffffffffffff168373ffffffffffffffffffffffffffffffffffffffff1603610d8b576040517f08c379a0000000000000000000000000000000000000000000000000000000008152600401610d82906122bf565b60405180910390fd5b600073ffffffffffffffffffffffffffffffffffffffff168273ffffffffffffffffffffffffffffffffffffffff1603610dfa576040517f08c379a0000000000000000000000000000000000000000000000000000000008152600401610df190612351565b60405180910390fd5b80600160008573ffffffffffffffffffffffffffffffffffffffff1673ffffffffffffffffffffffffffffffffffffffff16815260200190815260200160002060008473ffffffffffffffffffffffffffffffffffffffff1673ffffffffffffffffffffffffffffffffffffffff168152602001908152602001600020819055508173ffffffffffffffffffffffffffffffffffffffff168373ffffffffffffffffffffffffffffffffffffffff167f8c5be1e5ebec7d5bd14f71427d1e84f3dd0314c0f7b2291e5b200ac8c7c3b92583604051610ed89190611875565b60405180910390a3505050565b6000610ef18484610c0a565b90507fffffffffffffffffffffffffffffffffffffffffffffffffffffffffffffffff8114610f6b5781811015610f5d576040517f08c379a0000000000000000000000000000000000000000000000000000000008152600401610f54906123bd565b60405180910390fd5b610f6a8484848403610d1c565b5b50505050565b600073ffffffffffffffffffffffffffffffffffffffff168373ffffffffffffffffffffffffffffffffffffffff1603610fe0576040517f08c379a0000000000000000000000000000000000000000000000000000000008152600401610fd79061244f565b60405180910390fd5b600073ffffffffffffffffffffffffffffffffffffffff168273ffffffffffffffffffffffffffffffffffffffff160361104f576040517f08c379a0000000000000000000000000000000000000000000000000000000008152600401611046906124e1565b60405180910390fd5b61105a83838361164e565b60008060008573ffffffffffffffffffffffffffffffffffffffff1673ffffffffffffffffffffffffffffffffffffffff168152602001908152602001600020549050818110156110e0576040517f08c379a00000000000000000000000000000000000000000000000000000000081526004016110d790612573565b60405180910390fd5b8181036000808673ffffffffffffffffffffffffffffffffffffffff1673ffffffffffffffffffffffffffffffffffffffff16815260200190815260200160002081905550816000808573ffffffffffffffffffffffffffffffffffffffff1673ffffffffffffffffffffffffffffffffffffffff168152602001908152602001600020600082825401925050819055508273ffffffffffffffffffffffffffffffffffffffff168473ffffffffffffffffffffffffffffffffffffffff167fddf252ad1be2c89b69c2b068fc378daa952ba7f163c4a11628f55a4df523b3ef846040516111ce9190611875565b60405180910390a36111e1848484611653565b50505050565b6111ef610d14565b73ffffffffffffffffffffffffffffffffffffffff1661120d6109c8565b73ffffffffffffffffffffffffffffffffffffffff1614611263576040517f08c379a000000000000000000000000000000000000000000000000000000000815260040161125a906125df565b60405180910390fd5b565b600073ffffffffffffffffffffffffffffffffffffffff168273ffffffffffffffffffffffffffffffffffffffff16036112d4576040517f08c379a00000000000000000000000000000000000000000000000000000000081526004016112cb9061264b565b60405180910390fd5b6112e06000838361164e565b80600260008282546112f29190611ceb565b92505081905550806000808473ffffffffffffffffffffffffffffffffffffffff1673ffffffffffffffffffffffffffffffffffffffff168152602001908152602001600020600082825401925050819055508173ffffffffffffffffffffffffffffffffffffffff16600073ffffffffffffffffffffffffffffffffffffffff167fddf252ad1be2c89b69c2b068fc378daa952ba7f163c4a11628f55a4df523b3ef836040516113a39190611875565b60405180910390a36113b760008383611653565b5050565b600073ffffffffffffffffffffffffffffffffffffffff168273ffffffffffffffffffffffffffffffffffffffff160361142a576040517f08c379a0000000000000000000000000000000000000000000000000000000008152600401611421906126dd565b60405180910390fd5b6114368260008361164e565b60008060008473ffffffffffffffffffffffffffffffffffffffff1673ffffffffffffffffffffffffffffffffffffffff168152602001908152602001600020549050818110156114bc576040517f08c379a00000000000000000000000000000000000000000000000000000000081526004016114b39061276f565b60405180910390fd5b8181036000808573ffffffffffffffffffffffffffffffffffffffff1673ffffffffffffffffffffffffffffffffffffffff1681526020019081526020016000208190555081600260008282540392505081905550600073ffffffffffffffffffffffffffffffffffffffff168373ffffffffffffffffffffffffffffffffffffffff167fddf252ad1be2c89b69c2b068fc378daa952ba7f163c4a11628f55a4df523b3ef8460405161156f9190611875565b60405180910390a361158383600084611653565b505050565b6000600560009054906101000a900473ffffffffffffffffffffffffffffffffffffffff16905081600560006101000a81548173ffffffffffffffffffffffffffffffffffffffff021916908373ffffffffffffffffffffffffffffffffffffffff1602179055508173ffffffffffffffffffffffffffffffffffffffff168173ffffffffffffffffffffffffffffffffffffffff167f8be0079c531659141344cd1fd0a4f28419497f9722a3daafe3b4186f6b6457e060405160405180910390a35050565b505050565b505050565b6040518060800160405280600081526020016060815260200160008152602001600073ffffffffffffffffffffffffffffffffffffffff1681525090565b600081519050919050565b600082825260208201905092915050565b60005b838110156116d05780820151818401526020810190506116b5565b60008484015250505050565b6000601f19601f8301169050919050565b60006116f882611696565b61170281856116a1565b93506117128185602086016116b2565b61171b816116dc565b840191505092915050565b6000602082019050818103600083015261174081846116ed565b905092915050565b6000604051905090565b600080fd5b600080fd5b600073ffffffffffffffffffffffffffffffffffffffff82169050919050565b60006117878261175c565b9050919050565b6117978161177c565b81146117a257600080fd5b50565b6000813590506117b48161178e565b92915050565b6000819050919050565b6117cd816117ba565b81146117d857600080fd5b50565b6000813590506117ea816117c4565b92915050565b6000806040838503121561180757611806611752565b5b6000611815858286016117a5565b9250506020611826858286016117db565b9150509250929050565b60008115159050919050565b61184581611830565b82525050565b6000602082019050611860600083018461183c565b92915050565b61186f816117ba565b82525050565b600060208201905061188a6000830184611866565b92915050565b6000806000606084860312156118a9576118a8611752565b5b60006118b7868287016117a5565b93505060206118c8868287016117a5565b92505060406118d9868287016117db565b9150509250925092565b600060ff82169050919050565b6118f9816118e3565b82525050565b600060208201905061191460008301846118f0565b92915050565b6000602082840312156119305761192f611752565b5b600061193e848285016117db565b91505092915050565b60006020828403121561195d5761195c611752565b5b600061196b848285016117a5565b91505092915050565b61197d816117ba565b82525050565b600082825260208201905092915050565b600061199f82611696565b6119a98185611983565b93506119b98185602086016116b2565b6119c2816116dc565b840191505092915050565b6119d68161177c565b82525050565b60006080830160008301516119f46000860182611974565b5060208301518482036020860152611a0c8282611994565b9150506040830151611a216040860182611974565b506060830151611a3460608601826119cd565b508091505092915050565b60006020820190508181036000830152611a5981846119dc565b905092915050565b611a6a8161177c565b82525050565b6000602082019050611a856000830184611a61565b92915050565b600080fd5b600080fd5b7f4e487b7100000000000000000000000000000000000000000000000000000000600052604160045260246000fd5b611acd826116dc565b810181811067ffffffffffffffff82111715611aec57611aeb611a95565b5b80604052505050565b6000611aff611748565b9050611b0b8282611ac4565b919050565b600067ffffffffffffffff821115611b2b57611b2a611a95565b5b611b34826116dc565b9050602081019050919050565b82818337600083830152505050565b6000611b63611b5e84611b10565b611af5565b905082815260208101848484011115611b7f57611b7e611a90565b5b611b8a848285611b41565b509392505050565b600082601f830112611ba757611ba6611a8b565b5b8135611bb7848260208601611b50565b91505092915050565b60008060408385031215611bd757611bd6611752565b5b600083013567ffffffffffffffff811115611bf557611bf4611757565b5b611c0185828601611b92565b9250506020611c12858286016117db565b9150509250929050565b60008060408385031215611c3357611c32611752565b5b6000611c41858286016117a5565b9250506020611c52858286016117a5565b9150509250929050565b7f4e487b7100000000000000000000000000000000000000000000000000000000600052602260045260246000fd5b60006002820490506001821680611ca357607f821691505b602082108103611cb657611cb5611c5c565b5b50919050565b7f4e487b7100000000000000000000000000000000000000000000000000000000600052601160045260246000fd5b6000611cf6826117ba565b9150611d01836117ba565b9250828201905080821115611d1957611d18611cbc565b5b92915050565b7f496e76616c696420746f6b656e20494400000000000000000000000000000000600082015250565b6000611d556010836116a1565b9150611d6082611d1f565b602082019050919050565b60006020820190508181036000830152611d8481611d48565b9050919050565b7f496e73756666696369656e742062616c616e6365000000000000000000000000600082015250565b6000611dc16014836116a1565b9150611dcc82611d8b565b602082019050919050565b60006020820190508181036000830152611df081611db4565b9050919050565b7f546f6b656e20494420646f6573206e6f74206578697374000000000000000000600082015250565b6000611e2d6017836116a1565b9150611e3882611df7565b602082019050919050565b60006020820190508181036000830152611e5c81611e20565b9050919050565b7f45524332303a2064656372656173656420616c6c6f77616e63652062656c6f7760008201527f207a65726f000000000000000000000000000000000000000000000000000000602082015250565b6000611ebf6025836116a1565b9150611eca82611e63565b604082019050919050565b60006020820190508181036000830152611eee81611eb2565b9050919050565b6000611f00826117ba565b91507fffffffffffffffffffffffffffffffffffffffffffffffffffffffffffffffff8203611f3257611f31611cbc565b5b600182019050919050565b60008190508160005260206000209050919050565b60006020601f8301049050919050565b600082821b905092915050565b600060088302611f9f7fffffffffffffffffffffffffffffffffffffffffffffffffffffffffffffffff82611f62565b611fa98683611f62565b95508019841693508086168417925050509392505050565b6000819050919050565b6000611fe6611fe1611fdc846117ba565b611fc1565b6117ba565b9050919050565b6000819050919050565b61200083611fcb565b61201461200c82611fed565b848454611f6f565b825550505050565b600090565b61202961201c565b612034818484611ff7565b505050565b5b818110156120585761204d600082612021565b60018101905061203a565b5050565b601f82111561209d5761206e81611f3d565b61207784611f52565b81016020851015612086578190505b61209a61209285611f52565b830182612039565b50505b505050565b600082821c905092915050565b60006120c0600019846008026120a2565b1980831691505092915050565b60006120d983836120af565b9150826002028217905092915050565b6120f282611696565b67ffffffffffffffff81111561210b5761210a611a95565b5b6121158254611c8b565b61212082828561205c565b600060209050601f8311600181146121535760008415612141578287015190505b61214b85826120cd565b8655506121b3565b601f19841661216186611f3d565b60005b8281101561218957848901518255600182019150602085019450602081019050612164565b868310156121a657848901516121a2601f8916826120af565b8355505b6001600288020188555050505b505050505050565b7f4f776e61626c653a206e6577206f776e657220697320746865207a65726f206160008201527f6464726573730000000000000000000000000000000000000000000000000000602082015250565b60006122176026836116a1565b9150612222826121bb565b604082019050919050565b600060208201905081810360008301526122468161220a565b9050919050565b7f45524332303a20617070726f76652066726f6d20746865207a65726f2061646460008201527f7265737300000000000000000000000000000000000000000000000000000000602082015250565b60006122a96024836116a1565b91506122b48261224d565b604082019050919050565b600060208201905081810360008301526122d88161229c565b9050919050565b7f45524332303a20617070726f766520746f20746865207a65726f20616464726560008201527f7373000000000000000000000000000000000000000000000000000000000000602082015250565b600061233b6022836116a1565b9150612346826122df565b604082019050919050565b6000602082019050818103600083015261236a8161232e565b9050919050565b7f45524332303a20696e73756666696369656e7420616c6c6f77616e6365000000600082015250565b60006123a7601d836116a1565b91506123b282612371565b602082019050919050565b600060208201905081810360008301526123d68161239a565b9050919050565b7f45524332303a207472616e736665722066726f6d20746865207a65726f20616460008201527f6472657373000000000000000000000000000000000000000000000000000000602082015250565b60006124396025836116a1565b9150612444826123dd565b604082019050919050565b600060208201905081810360008301526124688161242c565b9050919050565b7f45524332303a207472616e7366657220746f20746865207a65726f206164647260008201527f6573730000000000000000000000000000000000000000000000000000000000602082015250565b60006124cb6023836116a1565b91506124d68261246f565b604082019050919050565b600060208201905081810360008301526124fa816124be565b9050919050565b7f45524332303a207472616e7366657220616d6f756e742065786365656473206260008201527f616c616e63650000000000000000000000000000000000000000000000000000602082015250565b600061255d6026836116a1565b915061256882612501565b604082019050919050565b6000602082019050818103600083015261258c81612550565b9050919050565b7f4f776e61626c653a2063616c6c6572206973206e6f7420746865206f776e6572600082015250565b60006125c96020836116a1565b91506125d482612593565b602082019050919050565b600060208201905081810360008301526125f8816125bc565b9050919050565b7f45524332303a206d696e7420746f20746865207a65726f206164647265737300600082015250565b6000612635601f836116a1565b9150612640826125ff565b602082019050919050565b6000602082019050818103600083015261266481612628565b9050919050565b7f45524332303a206275726e2066726f6d20746865207a65726f2061646472657360008201527f7300000000000000000000000000000000000000000000000000000000000000602082015250565b60006126c76021836116a1565b91506126d28261266b565b604082019050919050565b600060208201905081810360008301526126f6816126ba565b9050919050565b7f45524332303a206275726e20616d6f756e7420657863656564732062616c616e60008201527f6365000000000000000000000000000000000000000000000000000000000000602082015250565b60006127596022836116a1565b9150612764826126fd565b604082019050919050565b600060208201905081810360008301526127888161274c565b905091905056fea26469706673582212201e704c4cec0d82236ff0d9da9c39bf18e73fe287079f4204c220813ce8e6469464736f6c63430008120033",
  "linkReferences": {},
  "deployedLinkReferences": {}
}